:0600000080315C28803114
:10000800FF302E008C12200092003E00C400F20146
:1000180020000D08F300F31D4228731D4528F31C2A
:100028004828731C4B282000921120008D110D08C0
:10003800F300F20A731D4528F31C4828731C4B284B
:100048002000121120000D110D08F300F20AF31C14
:100058004828731C4B282000921020008D100D0892
:10006800F300F20A731C4B288901F601F501F1002F
:10007800F0018E20F60AF61B7514090072084E204E
:100088003B28720850203B28720853203B287208EE
:1000980057203B288207F7348207EF34FD34820764
:1000A800FF34ED34CF3482072734E634DB340634AA
:1000B80020008C01200096013E00B801200000308D
:1000C800910020008E01200098013E00CE01200002
:1000D8000030930020008D01200097013E00C301ED
:1000E8002000FF3092003E00FF30C400200089301D
:1000F8009E00200050309F002E008C122000FA3005
:100108009D002E008C1220008B170B172E009616C0
:1001180000008C28200071088C00200070088E00D8
:0601280075180E16080018
:020000040001F9
:0A000E00ECDFFFF7BFFFFEEFFFFF7E
:00000001FF
