:0600000080319D288031D3
:10000800FF30F7012E008C12200092003E00C40041
:10001800F50120000D08F600F61D7E28761D8228C1
:10002800F61C8628761C8A282000921120008D1143
:100038000D08F600F50A761D8228F61C8628761C1F
:100048008A282000121120000D110D08F600F50A6B
:10005800F61C8628761C8A282000921020008D1015
:100068000D08F600F50A761C8A2801307706031970
:100078004B28FA30F20A720203185F280230720223
:100088000318F1013C307206031D09006228013093
:10009800F10A71060319090002307106031959287B
:1000A800C8307106031D090074283B307202031C16
:1000B8006928F2010900FA30F2000900F73020003F
:1000C8008E00200074088C000900C930F1003D3012
:1000D800F200FB3020008E00200074088C0009001C
:1000E8003D30F200FD30F10320008E00200074083E
:1000F8008C000900F70A75088F208D28F70A750803
:1001080091208D28F70A750894208D28F70A75081C
:100118009820F40039288207F7348207EF34FD3439
:100128008207FF34ED34CF3482072734E634DB34DA
:10013800063420008C01200096013E00B801200002
:100148000030910020008E01200098013E00CE0171
:1001580020000030930020008D01200097013E0010
:10016800C3012000FF3092003E00FF30C400200091
:1001780080309E00200051309F002E008C122000FD
:10018800FA309D002E008C1220008B170B172E00C2
:0E01980096160030F100FA30F2000000D12877
:020000040001F9
:0A000E00ECDFFFF7BFFFFEEFFFFF7E
:00000001FF
