:040000008031202803
:100008007E1480312E008C1E0A280B280F288C1293
:100018008031312080312E00991E132814281E2883
:100028008F1E172818281E288F1222001908F6007C
:10003800F501F50A7E1009008031222881316D21F1
:100048008031F700F001F101F201F301F401F5014B
:10005800F6017E1020008031FB28F2010F302000CD
:1000680092000F303E00C400F10120008D193D2898
:100078003E284C280130F8007808F20771086E3ED7
:10008800840081300318013E85000008F000B22882
:100098000D194F2850285E280130F8007808F2071B
:1000A80071086B3E840081300318013E850000080A
:1000B800F000B2288D186128622870280130F800F5
:1000C8007808F2077108683E840081300318013E01
:1000D80085000008F000B2280D18732874288228BB
:1000E8000130F8007808F2077108603E840081301A
:1000F8000318013E85000008F000B22892118D1106
:100108000130F8007808F1070D198B288C288D2804
:1001180050288D1890289128922862280D18952823
:1001280096289728742812110D110130F8007808C4
:10013800F1078D18A028A128A22862280D18A52843
:10014800A628A728742892108D100130F800780886
:10015800F1070D18B028B128B22874287203031DBE
:10016800B628B728DD280130F8007808F3077303AC
:10017800031DBF28C028C128FA2802307306031DB2
:10018800C628C728D3283C3077020318CC28CD28A6
:10019800D128813151218031FA28F701FA28C83055
:1001A8007306031DD828D928FA28813149218031BE
:1001B800FA280130F8007808F707FA307702031CAC
:1001C800E628E728EA28FA30F700FA28023077020A
:1001D800031CEF28F028FA28F3013C307706031DAA
:1001E800F628F728FA2881316421803108003E007A
:1001F800C3010F30200092008D010F303E00C40073
:10020800053021009B0010309C0010309D0081318A
:100218002921803181314121803181315921803139
:100228007503031D1829192914292E009912F5019F
:10023800760822009A002E000F1E232924291F2940
:100248000F12991614298031202822009C01193098
:100258009B003E00C31310309E00200012130F3085
:100268003D00CB002000921722009F151E15193063
:100278009B001E129D179E160800803020009E00CD
:1002880051309F00FA309D0008003D30F7000130E2
:10029800F302700822009A000800C930F3003D30CC
:1002A800F700700822009A0008008B170B172E0021
:1002B8009616191699160800373434343234313406
:1002C800700822009A000800383435343334393441
:0602D8003634FA346134F3
:020000040001F9
:0A000E00EC1FFF37BF3FFE2FFF3F3E
:00000001FF
