:0400000080310D2816
:100008007E1480312E008C128431A32480317E101E
:10001800090080310F28C730840084308500120021
:10002800D1001200D2001200D3001200D400120036
:10003800D500FB01DA01DB017E1020008231792A2C
:1000480020002D088039B7002D35BE00AC1F2D28A3
:100058002E282F283E143E08031933283428442814
:100068003E0A031D3828392841280030AD000030E9
:10007800AC000030AB000030AA00AC17AD014C2832
:100088000030AD000030AC000030AB000030AA00FA
:1000980029088039AE002E08B7062935BF00A81FE9
:1000A8005628572858283F143F0803195C285D280C
:1000B8006D283F0A031D612862286A280030A900BC
:1000C8000030A8000030A7000030A600A817A9013A
:1000D80075280030A9000030A8000030A7000030C3
:1000E800A6002908280427042604031D7C287D2847
:1000F80096280030AD000030AC000030AB00003076
:10010800AA008030AC047F30AD043708AE002E085A
:10011800AD042D08A9002C08A8002B08A7002A0860
:10012800A600CD293E08031D9A289B28A428003044
:10013800A9000030A8000030A7000030A600CD2993
:100148003E08AE00AF012F08B1003F082E02B000F4
:10015800031CB10330087F3EB8000030313DB900C0
:100168002D08B6002C08B5002B08B4002A08B300E7
:100178000030AD000030AC000030AB000030AA0009
:100188000030BD000030BC000030BB000030BA00B9
:10019800BF010C293F080319D228D328ED280130C4
:1001A800B335B40DB50DB60D890BD4280130AA3579
:1001B800AB0DAC0DAD0D890BDB28BD1FE428E52880
:1001C800E6282A140130BA35BB0DBC0DBD0D890BCC
:1001D800E72829083602031DFB2828083502031DD5
:1001E800FB2827083402031DFB2826083302031CBA
:1001F800FE28FF2808293D172608B3022708B43B24
:100208002808B53B2908B63B0130AE002E08BF07C9
:100218001A303F02031C11291229CE28360835044A
:1002280034043304031919291A2933293A143329B0
:100238000130AA35AB0DAC0DAD0D890B1D29BD1FC5
:100248002629272928292A140130BA35BB0DBC0DC7
:10025800BD0D890B2929FF30B807FF30B93DAC1F08
:10026800362937291C29BF01BD1F3B293C2958299C
:10027800FF303A05AE00FF303B05AF00FF303C05CC
:10028800B0007F303D05B100310830042F042E0442
:1002980003194F2950295329BF01BF0A58292A1C7D
:1002A80056295729582950293F0803195C295D29DF
:1002B80085290130AA070030AB3D0030AC3D003045
:1002C800AD3D2D1C6829692985292A08AE002B080F
:1002D800AF002C08B0002D08B1000130B200B137D2
:1002E800B00CAF0CAE0CB20B73293108AD0030085E
:1002F800AC002F08AB002E08AA000130B807003068
:10030800B93D3908803AAE0080302E02031D8E298F
:10031800FF303802031C912992299F29FF302000C1
:10032800B8000030B9000030AD000030AC0000303B
:10033800AB000030AA0020003908803AAE008030B7
:100348002E02031DA929013038020318AC29AD2952
:10035800B9292000B801B9010030AD000030AC0067
:100368000030AB000030AA00B70120003808BE00FA
:100378003E1CBF29C029C229AC17C6297F30AE0050
:100388002E08AC053E36AD003708AE002E08AD0489
:100398008D2808002000A00020080319D429D52999
:1003A800E929F41FD829D929E9297109A200720974
:1003B800A3007309A4007409A500A20A0319A30ADB
:1003C8000319A40A0319A50AF1297408A5007308DA
:1003D800A4007208A3007108A200740873047204D0
:1003E8007104031DF829F929022A0030F4000030AD
:1003F800F3000030F2000030F100782A9630A100B6
:10040800102A0130F5007508A1070130A536A40CA3
:10041800A30CA20C890B0A2AFE302505031D152AF8
:10042800162A052A2A2A0130F5007508A107013085
:10043800A2070030A33D0030A43D0030A53D0130A7
:10044800A536A40CA30CA20C890B242AFF30250581
:10045800031D2F2A302A172A3A2A0130A102013017
:10046800A235A30DA40DA50D890B342AA41B3D2A82
:100478003E2A442A023021020318432A442A312AF8
:100488002118472A482A502AFF30A205FF30A30521
:100498007F30A405FF30A5050310A10C2108F50045
:1004A800F601F701F8011830F535F60DF70DF80DDE
:1004B800890B582A7508A2047608A3047708A404AF
:1004C8007808A504200803196A2A6B2A702AF41FE1
:1004D8006E2A6F2A702AA5172508F4002408F3004D
:1004E8002308F2002208F10008003E00B8012000AD
:1004F800910196013E00C301FF3020009200FF30B9
:100508003E00C400200092013E00CE01200093016D
:10051800980180309E0042309F0084302100930073
:10052800FF309E009A01813032008C0008303D0077
:10053800900081308B0020302E00960021000D089D
:100548002000C800C9014808CB004908CC00210098
:100558000C082000C800C9014808CD004908CE0091
:100568002100131420004C08C9004B08C800480893
:10057800C900C8014D084804D8004E084904D900EC
:100588004930AD008030AC000030AB000030AA002C
:100598005808F1005908F200890D893B8909F300D0
:1005A800F40001308131CE21823174082000A90085
:1005B8007308A8007208A7007108A60080312420DB
:1005C800823120002908C3002808C2002708C1007A
:1005D8002608C00083311123823120004108D7004A
:1005E8004008D6008331822382312000CF01D00118
:1005F80001302000CF070030D03D5008803AC800B5
:10060800A7304802031D0A2B10304F02031C0D2B84
:100618000E2BFC2AA22A80310D2803102000420D3F
:10062800430DFA007A08031D1A2B1B2B242B0030CC
:10063800C3000030C2000030C1000030C000812B70
:100648004008C4004108C5004208C6004308C70066
:100658001F30C736C60CC50CC40C890B2D2B44089B
:10066800F900C217FF30C005FF30C105FF30C205D1
:100678000030C3059630FA02FA1F432B442B5C2B3B
:100688007A08803A973E03184A2B4B2B4C2B1B2B8E
:100698000130C336C20CC10CC00C890B4D2B013084
:1006A800C4004408FA07031D5A2B5B2B4C2B712BF3
:1006B80020307A02031C612B622B6C2B1B2B013020
:1006C800C035C10DC20DC30D890B642B0130FA0270
:1006D8007A08031D702B712B632B79080319752B6E
:1006E800762B812BC009C109C209C309C00A0319A5
:1006F800C10A0319C20A0319C30A0800E830F10045
:100708000330F20020005708F4005608F300833144
:10071800F0238331BC30710784000430723D803887
:10072800850000082000D4000A30A0000030A10095
:100738006430F1000030F2005708F4005608F30066
:100748008331F023833172082000A3007108A200CE
:1007580084314F248331BC302000200784000430CA
:10076800213D803885000008D3000A30A000003001
:10077800A1000A30F1000030F2005708F4005608D2
:10078800F3008331F023833172082000A30071083D
:10079800A20084314F248331BC302000200784001C
:1007A8000430213D803885000008D2000A30A000BE
:1007B8000030A1005708A3005608A20084314F2436
:1007C8008331BC302000200784000430213D80386C
:1007D80085000008D1000800F701F21FF42BF52B63
:1007E800FC2BF109F209F10A0319F20AF701F70AD9
:1007F800F41FFF2B002C092CF309F409F30A031941
:10080800F40A0130F5007508F706F801F9017108D6
:1008180072040319102C112C402CF601F60A1D2C19
:100828000130F135F20D890B152C0130F5007508F2
:10083800F607F21F202C212C142C0130F835F90D65
:10084800890B222C72087402031D2C2C7108730268
:10085800031C2F2C302C352C7108F3027208F43B42
:1008680078140130F236F10C890B362C0130F6027F
:10087800031D3F2C402C212C77080319442C452CB0
:100888004A2CF809F909F80A0319F90A7908F20053
:100898007808F10008002000A501A31F542C552C4E
:1008A8005C2CA209A309A20A0319A30AA501A50A97
:1008B800A11F5F2C602C652CA009A109A00A0319AF
:1008C800A10A2008210403196A2C6B2C942CA4017A
:1008D800A40A772C0130A035A10D890B6F2C0130AB
:1008E800FA007A08A407A11F7A2C7B2C6E2C210809
:1008F8002302031D812C20082202031C842C852C32
:10090800892C2008A2022108A33B0130A136A00CA3
:10091800890B8A2C0130A402031D932C942C7B2C68
:1009280025080319982C992C9E2CA209A309A20A20
:100938000319A30A2308A1002208A00008007B08C5
:10094800513E86008701010820008C0055088E0062
:100958005536D5000130F0007008FB0704307B06DF
:10096800031DB72CB82CBB2CF730D500FB010800B1
:100978007F340634DB34CF34E634ED34FD340734C9
:10098800FF34EF34F7347F347F347F347F34F734E7
:020000040001F9
:0A000E00EC1FFF379F3FFE2FFF3F5E
:00000001FF
