:040000008031202803
:100008007E1480312E008C1E0A280B280F288C1293
:100018008031312080312E00991E132814281E2883
:100028008F1E172818281E288F1222001908F6007C
:10003800F501F50A7E1009008031222881315C2102
:100048008031F700F001F101F201F301F401F5014B
:10005800F6017E10200081311C29F2010F302000AA
:1000680092000F303E00C400F10120008D193D2898
:100078003E284C280130F8007808F20771085D3EE8
:10008800840081300318013E85000008F000B22882
:100098000D194F2850285E280130F8007808F2071B
:1000A80071085A3E840081300318013E850000081B
:1000B800F000B2288D186128622870280130F800F5
:1000C8007808F2077108573E840081300318013E12
:1000D80085000008F000B2280D18732874288228BB
:1000E8000130F8007808F20771084F3E840081302B
:1000F8000318013E85000008F000B22892118D1106
:100108000130F8007808F1070D198B288C288D2804
:1001180050288D1890289128922862280D18952823
:1001280096289728742812110D110130F8007808C4
:10013800F1078D18A028A128A22862280D18A52843
:10014800A628A728742892108D100130F800780886
:10015800F1070D18B028B128B22874287203031DBE
:10016800B628B728DD280130F8007808F3077303AC
:10017800031DBF28C028C128FA2802307306031DB2
:10018800C628C728D3283C3077020318CC28CD28A6
:10019800D128813147218031FA28F701FA28C8305F
:1001A8007306031DD828D928FA2881313F218031C8
:1001B800FA280130F8007808F707FA307702031CAC
:1001C800E628E728EA28FA30F700FA28023077020A
:1001D800031CEF28F028FA28F3013C307706031DAA
:1001E800F628F728FA2881315321803108002200A7
:1001F8009C0119309B003E00C31320001213921774
:100208003D008F0110303E009E000F303D00CB00B6
:10021800243022009E0090309D009F151E15193035
:100228009B002E0099168B170B17961619160800A7
:100238008131372181318031FB2081317503031DE4
:100248002629272922292E009912F501760822004D
:100258009A002E000F1E312932292D290F129916C6
:10026800222980312028803020009E0051309F00B4
:10027800FA309D0008003D30F7000130F3027008A5
:1002880022009A000800C930F3003D30F7007008DA
:1002980022009A000800373434343234313470087C
:1002A80022009A000800383435343334393436346F
:0402B800FA3461347F
:00000001FF
