:0600000080319B288031D5
:10000800FF30F6012E008C12200092003E00C40042
:10001800F20120000D08F500F51D7920751D7E20E0
:10002800F51C8320751C88202000921120008D115A
:100038000D08F500F20A751D7E20F51C8320751C3D
:1000480088202000121120000D110D08F500F20A79
:10005800F51C8320751C88202000921020008D102C
:100068000D08F500F20A751C882002307602031C80
:1000780041280130F60603194B280230F40A7402AD
:10008800031CF3013C30F406031D09005E2802300E
:10009800F30A7302031C592802307302031CF4018B
:1000A800C830F306031909006E283B3073020318A1
:1000B80065285028200071088C00073020008E0029
:1000C8000900C930F300200071088C000B302000B3
:1000D8008E0009004630F400C930F3002000710892
:1000E8008C000D3020008E000900F60A72088D2061
:1000F800F1000800F60A72088F20F1000800F60ADD
:1001080072089220F1000800F60A72089620F100A1
:1001180008008207F7348207EF34FD348207FF3482
:10012800ED34CF3482072734E634DB34063420003C
:100138008C01200096013E00B8012000003091009B
:1001480020008E01200098013E00CE0120000030E2
:10015800930020008D01200097013E00C30120007C
:10016800FF3092003E00FF30C400200089309E001E
:10017800200050309F002E008C122000FA309D0085
:100188002E008C1220008B170B172E0096160030AD
:0A019800F300FA30F4000000CF2855
:020000040001F9
:0A000E00ECDFFFF7BFFFFEEFFFFF7E
:00000001FF
