:0600000080311C28803154
:100008002E008C127620F00C710877185220F71801
:10001800572077195C20F7196120F10AF200711D49
:10002800090066207620F730F0000030F101090061
:1000380020008C01200096013E00B801200000300D
:10004800910020008E01200098013E00CE01200082
:1000580000309300200080309E00200050309F0028
:100068002E008C1220007F309D002E008C12200064
:100078008B170B172E0096164B200130F700771AB6
:1000880048206C20F70D43280130F7000800F730AE
:10009800F0000130F1000630F20008008207063453
:1000A800DB34CF34E6348207E6340634DB34CF342D
:1000B8008207CF34E6340634DB348207DB34CF34AE
:1000C800E634063420000A30A200A20B6928080092
:1000D8002000C830A000C830A100A10B7128A00BD7
:1000E8006F280800200072088C00200070088E001D
:0400F80008000000FC
:020000040001F9
:0A000E00ECDFFFF7BFFFFEEFFFFF7E
:00000001FF
