:060000008031052880316B
:1000080009002000003092000030930090309E00DC
:1000180040309F00023051208D00E0308E00442097
:10002800003051208D00D0308E0044200230512005
:100038008D00B0308E004420033051208D00703088
:100048008E004420013051208D00E0308E003F208A
:10005800023051208D00D0308E003F2003305120D7
:100068008D00B0308E003F20043051208D0070305C
:100078008E003F2026289E1E3F289E1A41280800F1
:10008800FD309D0099309C009E1E4828FD309D0043
:1000980099309C009E1A4E28080082073F34063487
:1000A8005B344F3466346B347B3407347F346F34BD
:020000040001F9
:0A000E00ECDFFFF7BFFFFEEFFFFF7E
:00000001FF
